{
  "contractName": "CarbonCreditToken",
  "abi": [
    {
      "inputs": [
        {
          "internalType": "string",
          "name": "baseURI",
          "type": "string"
        }
      ],
      "stateMutability": "nonpayable",
      "type": "constructor"
    },
    {
      "anonymous": false,
      "inputs": [
        {
          "indexed": true,
          "internalType": "address",
          "name": "account",
          "type": "address"
        },
        {
          "indexed": true,
          "internalType": "address",
          "name": "operator",
          "type": "address"
        },
        {
          "indexed": false,
          "internalType": "bool",
          "name": "approved",
          "type": "bool"
        }
      ],
      "name": "ApprovalForAll",
      "type": "event"
    },
    {
      "anonymous": false,
      "inputs": [
        {
          "indexed": true,
          "internalType": "uint256",
          "name": "tokenId",
          "type": "uint256"
        },
        {
          "indexed": true,
          "internalType": "uint256",
          "name": "forestId",
          "type": "uint256"
        },
        {
          "indexed": true,
          "internalType": "address",
          "name": "recipient",
          "type": "address"
        },
        {
          "indexed": false,
          "internalType": "uint256",
          "name": "amount",
          "type": "uint256"
        }
      ],
      "name": "CreditsMinted",
      "type": "event"
    },
    {
      "anonymous": false,
      "inputs": [
        {
          "indexed": true,
          "internalType": "uint256",
          "name": "tokenId",
          "type": "uint256"
        },
        {
          "indexed": true,
          "internalType": "address",
          "name": "account",
          "type": "address"
        },
        {
          "indexed": false,
          "internalType": "uint256",
          "name": "amount",
          "type": "uint256"
        }
      ],
      "name": "CreditsRetired",
      "type": "event"
    },
    {
      "anonymous": false,
      "inputs": [
        {
          "indexed": true,
          "internalType": "address",
          "name": "previousOwner",
          "type": "address"
        },
        {
          "indexed": true,
          "internalType": "address",
          "name": "newOwner",
          "type": "address"
        }
      ],
      "name": "OwnershipTransferred",
      "type": "event"
    },
    {
      "anonymous": false,
      "inputs": [
        {
          "indexed": true,
          "internalType": "address",
          "name": "operator",
          "type": "address"
        },
        {
          "indexed": true,
          "internalType": "address",
          "name": "from",
          "type": "address"
        },
        {
          "indexed": true,
          "internalType": "address",
          "name": "to",
          "type": "address"
        },
        {
          "indexed": false,
          "internalType": "uint256[]",
          "name": "ids",
          "type": "uint256[]"
        },
        {
          "indexed": false,
          "internalType": "uint256[]",
          "name": "values",
          "type": "uint256[]"
        }
      ],
      "name": "TransferBatch",
      "type": "event"
    },
    {
      "anonymous": false,
      "inputs": [
        {
          "indexed": true,
          "internalType": "address",
          "name": "operator",
          "type": "address"
        },
        {
          "indexed": true,
          "internalType": "address",
          "name": "from",
          "type": "address"
        },
        {
          "indexed": true,
          "internalType": "address",
          "name": "to",
          "type": "address"
        },
        {
          "indexed": false,
          "internalType": "uint256",
          "name": "id",
          "type": "uint256"
        },
        {
          "indexed": false,
          "internalType": "uint256",
          "name": "value",
          "type": "uint256"
        }
      ],
      "name": "TransferSingle",
      "type": "event"
    },
    {
      "anonymous": false,
      "inputs": [
        {
          "indexed": false,
          "internalType": "string",
          "name": "value",
          "type": "string"
        },
        {
          "indexed": true,
          "internalType": "uint256",
          "name": "id",
          "type": "uint256"
        }
      ],
      "name": "URI",
      "type": "event"
    },
    {
      "inputs": [
        {
          "internalType": "address",
          "name": "account",
          "type": "address"
        },
        {
          "internalType": "uint256",
          "name": "id",
          "type": "uint256"
        }
      ],
      "name": "balanceOf",
      "outputs": [
        {
          "internalType": "uint256",
          "name": "",
          "type": "uint256"
        }
      ],
      "stateMutability": "view",
      "type": "function",
      "constant": true
    },
    {
      "inputs": [
        {
          "internalType": "address[]",
          "name": "accounts",
          "type": "address[]"
        },
        {
          "internalType": "uint256[]",
          "name": "ids",
          "type": "uint256[]"
        }
      ],
      "name": "balanceOfBatch",
      "outputs": [
        {
          "internalType": "uint256[]",
          "name": "",
          "type": "uint256[]"
        }
      ],
      "stateMutability": "view",
      "type": "function",
      "constant": true
    },
    {
      "inputs": [
        {
          "internalType": "uint256",
          "name": "",
          "type": "uint256"
        }
      ],
      "name": "forestIdToTokenId",
      "outputs": [
        {
          "internalType": "uint256",
          "name": "",
          "type": "uint256"
        }
      ],
      "stateMutability": "view",
      "type": "function",
      "constant": true
    },
    {
      "inputs": [
        {
          "internalType": "address",
          "name": "account",
          "type": "address"
        },
        {
          "internalType": "address",
          "name": "operator",
          "type": "address"
        }
      ],
      "name": "isApprovedForAll",
      "outputs": [
        {
          "internalType": "bool",
          "name": "",
          "type": "bool"
        }
      ],
      "stateMutability": "view",
      "type": "function",
      "constant": true
    },
    {
      "inputs": [],
      "name": "name",
      "outputs": [
        {
          "internalType": "string",
          "name": "",
          "type": "string"
        }
      ],
      "stateMutability": "view",
      "type": "function",
      "constant": true
    },
    {
      "inputs": [],
      "name": "owner",
      "outputs": [
        {
          "internalType": "address",
          "name": "",
          "type": "address"
        }
      ],
      "stateMutability": "view",
      "type": "function",
      "constant": true
    },
    {
      "inputs": [],
      "name": "renounceOwnership",
      "outputs": [],
      "stateMutability": "nonpayable",
      "type": "function"
    },
    {
      "inputs": [
        {
          "internalType": "address",
          "name": "from",
          "type": "address"
        },
        {
          "internalType": "address",
          "name": "to",
          "type": "address"
        },
        {
          "internalType": "uint256[]",
          "name": "ids",
          "type": "uint256[]"
        },
        {
          "internalType": "uint256[]",
          "name": "amounts",
          "type": "uint256[]"
        },
        {
          "internalType": "bytes",
          "name": "data",
          "type": "bytes"
        }
      ],
      "name": "safeBatchTransferFrom",
      "outputs": [],
      "stateMutability": "nonpayable",
      "type": "function"
    },
    {
      "inputs": [
        {
          "internalType": "address",
          "name": "from",
          "type": "address"
        },
        {
          "internalType": "address",
          "name": "to",
          "type": "address"
        },
        {
          "internalType": "uint256",
          "name": "id",
          "type": "uint256"
        },
        {
          "internalType": "uint256",
          "name": "amount",
          "type": "uint256"
        },
        {
          "internalType": "bytes",
          "name": "data",
          "type": "bytes"
        }
      ],
      "name": "safeTransferFrom",
      "outputs": [],
      "stateMutability": "nonpayable",
      "type": "function"
    },
    {
      "inputs": [
        {
          "internalType": "address",
          "name": "operator",
          "type": "address"
        },
        {
          "internalType": "bool",
          "name": "approved",
          "type": "bool"
        }
      ],
      "name": "setApprovalForAll",
      "outputs": [],
      "stateMutability": "nonpayable",
      "type": "function"
    },
    {
      "inputs": [
        {
          "internalType": "bytes4",
          "name": "interfaceId",
          "type": "bytes4"
        }
      ],
      "name": "supportsInterface",
      "outputs": [
        {
          "internalType": "bool",
          "name": "",
          "type": "bool"
        }
      ],
      "stateMutability": "view",
      "type": "function",
      "constant": true
    },
    {
      "inputs": [],
      "name": "symbol",
      "outputs": [
        {
          "internalType": "string",
          "name": "",
          "type": "string"
        }
      ],
      "stateMutability": "view",
      "type": "function",
      "constant": true
    },
    {
      "inputs": [
        {
          "internalType": "uint256",
          "name": "",
          "type": "uint256"
        }
      ],
      "name": "tokenIdToForestId",
      "outputs": [
        {
          "internalType": "uint256",
          "name": "",
          "type": "uint256"
        }
      ],
      "stateMutability": "view",
      "type": "function",
      "constant": true
    },
    {
      "inputs": [
        {
          "internalType": "address",
          "name": "newOwner",
          "type": "address"
        }
      ],
      "name": "transferOwnership",
      "outputs": [],
      "stateMutability": "nonpayable",
      "type": "function"
    },
    {
      "inputs": [
        {
          "internalType": "uint256",
          "name": "forestId",
          "type": "uint256"
        },
        {
          "internalType": "uint256",
          "name": "amount",
          "type": "uint256"
        },
        {
          "internalType": "address",
          "name": "recipient",
          "type": "address"
        }
      ],
      "name": "mintCredits",
      "outputs": [
        {
          "internalType": "uint256",
          "name": "",
          "type": "uint256"
        }
      ],
      "stateMutability": "nonpayable",
      "type": "function"
    },
    {
      "inputs": [
        {
          "internalType": "uint256[]",
          "name": "forestIds",
          "type": "uint256[]"
        },
        {
          "internalType": "uint256[]",
          "name": "amounts",
          "type": "uint256[]"
        },
        {
          "internalType": "address",
          "name": "recipient",
          "type": "address"
        }
      ],
      "name": "mintBatchCredits",
      "outputs": [],
      "stateMutability": "nonpayable",
      "type": "function"
    },
    {
      "inputs": [
        {
          "internalType": "uint256",
          "name": "tokenId",
          "type": "uint256"
        },
        {
          "internalType": "uint256",
          "name": "amount",
          "type": "uint256"
        }
      ],
      "name": "retireCredits",
      "outputs": [],
      "stateMutability": "nonpayable",
      "type": "function"
    },
    {
      "inputs": [
        {
          "internalType": "uint256",
          "name": "tokenId",
          "type": "uint256"
        }
      ],
      "name": "getForestId",
      "outputs": [
        {
          "internalType": "uint256",
          "name": "",
          "type": "uint256"
        }
      ],
      "stateMutability": "view",
      "type": "function",
      "constant": true
    },
    {
      "inputs": [
        {
          "internalType": "uint256",
          "name": "forestId",
          "type": "uint256"
        }
      ],
      "name": "getTokenId",
      "outputs": [
        {
          "internalType": "uint256",
          "name": "",
          "type": "uint256"
        }
      ],
      "stateMutability": "view",
      "type": "function",
      "constant": true
    },
    {
      "inputs": [
        {
          "internalType": "string",
          "name": "baseURI",
          "type": "string"
        }
      ],
      "name": "setBaseURI",
      "outputs": [],
      "stateMutability": "nonpayable",
      "type": "function"
    },
    {
      "inputs": [
        {
          "internalType": "uint256",
          "name": "tokenId",
          "type": "uint256"
        }
      ],
      "name": "uri",
      "outputs": [
        {
          "internalType": "string",
          "name": "",
          "type": "string"
        }
      ],
      "stateMutability": "view",
      "type": "function",
      "constant": true
    },
    {
      "inputs": [],
      "name": "getCurrentTokenId",
      "outputs": [
        {
          "internalType": "uint256",
          "name": "",
          "type": "uint256"
        }
      ],
      "stateMutability": "view",
      "type": "function",
      "constant": true
    }
  ],
  "bytecode": "0x60c0604052601360809081527f436172626f6e2043726564697420546f6b656e0000000000000000000000000060a0526004906200003e9082620001d5565b5060408051808201909152600381526210d0d560ea1b6020820152600590620000689082620001d5565b5060016008553480156200007b57600080fd5b506040516200273c3803806200273c8339810160408190526200009e91620002a1565b80620000aa81620000cc565b50620000b633620000de565b6009620000c48282620001d5565b505062000376565b6002620000da8282620001d5565b5050565b600380546001600160a01b038381166001600160a01b0319831681179093556040519116919082907f8be0079c531659141344cd1fd0a4f28419497f9722a3daafe3b4186f6b6457e090600090a35050565b634e487b7160e01b600052604160045260246000fd5b600181811c908216806200015b57607f821691505b6020821081036200017c57634e487b7160e01b600052602260045260246000fd5b50919050565b601f821115620001d057600081815260208120601f850160051c81016020861015620001ab5750805b601f850160051c820191505b81811015620001cc57828155600101620001b7565b5050505b505050565b81516001600160401b03811115620001f157620001f162000130565b620002098162000202845462000146565b8462000182565b602080601f831160018114620002415760008415620002285750858301515b600019600386901b1c1916600185901b178555620001cc565b600085815260208120601f198616915b82811015620002725788860151825594840194600190910190840162000251565b5085821015620002915787850151600019600388901b60f8161c191681555b5050505050600190811b01905550565b60006020808385031215620002b557600080fd5b82516001600160401b0380821115620002cd57600080fd5b818501915085601f830112620002e257600080fd5b815181811115620002f757620002f762000130565b604051601f8201601f19908116603f0116810190838211818310171562000322576200032262000130565b8160405282815288868487010111156200033b57600080fd5b600093505b828410156200035f578484018601518185018701529285019262000340565b600086848301015280965050505050505092915050565b6123b680620003866000396000f3fe608060405234801561001057600080fd5b50600436106101415760003560e01c8063715018a6116100b8578063a22cb4651161007c578063a22cb465146102c5578063d161d273146102d8578063e985e9c5146102eb578063f242432a14610327578063f2fde38b1461033a578063f9d1e7dd1461034d57600080fd5b8063715018a61461025a57806388fb5dd3146102625780638da5cb5b1461028257806391c793761461029d57806395d89b41146102bd57600080fd5b80632eb2c2d61161010a5780632eb2c2d6146101d75780633ea0fb13146101ec5780634e1273f4146101ff57806355f804b31461021f57806356189236146102325780635bd411001461023a57600080fd5b8062fdd58e1461014657806301ffc9a71461016c57806306fdde031461018f5780630e89341c146101a457806314ff5ea3146101b7575b600080fd5b610159610154366004611819565b610360565b6040519081526020015b60405180910390f35b61017f61017a366004611859565b6103f9565b6040519015158152602001610163565b610197610449565b60405161016391906118cd565b6101976101b23660046118e0565b6104d7565b6101596101c53660046118e0565b60009081526007602052604090205490565b6101ea6101e5366004611a4c565b61050b565b005b6101ea6101fa366004611af5565b610557565b61021261020d366004611b17565b6105ed565b6040516101639190611c1c565b6101ea61022d366004611c2f565b610716565b600854610159565b6101596102483660046118e0565b60076020526000908152604090205481565b6101ea610737565b6101596102703660046118e0565b60009081526006602052604090205490565b6003546040516001600160a01b039091168152602001610163565b6101596102ab3660046118e0565b60066020526000908152604090205481565b61019761074b565b6101ea6102d3366004611c7f565b610758565b6101596102e6366004611cbb565b610767565b61017f6102f9366004611cf0565b6001600160a01b03918216600090815260016020908152604080832093909416825291909152205460ff1690565b6101ea610335366004611d23565b6108df565b6101ea610348366004611d87565b610924565b6101ea61035b366004611da2565b61099a565b60006001600160a01b0383166103d05760405162461bcd60e51b815260206004820152602a60248201527f455243313135353a2061646472657373207a65726f206973206e6f742061207660448201526930b634b21037bbb732b960b11b60648201526084015b60405180910390fd5b506000818152602081815260408083206001600160a01b03861684529091529020545b92915050565b60006001600160e01b03198216636cdb3d1360e11b148061042a57506001600160e01b031982166303a24d0760e21b145b806103f357506301ffc9a760e01b6001600160e01b03198316146103f3565b6004805461045690611e0c565b80601f016020809104026020016040519081016040528092919081815260200182805461048290611e0c565b80156104cf5780601f106104a4576101008083540402835291602001916104cf565b820191906000526020600020905b8154815290600101906020018083116104b257829003601f168201915b505050505081565b606060096104e483610c37565b6040516020016104f5929190611e46565b6040516020818303038152906040529050919050565b6001600160a01b038516331480610527575061052785336102f9565b6105435760405162461bcd60e51b81526004016103c790611edd565b6105508585858585610cc9565b5050505050565b806105623384610360565b10156105a75760405162461bcd60e51b8152602060048201526014602482015273496e73756666696369656e742062616c616e636560601b60448201526064016103c7565b6105b2338383610e65565b604051818152339083907f31995d78296d80ec997704a03d4e6295c44e8755e8117523fb44bf086c306dcb9060200160405180910390a35050565b606081518351146106525760405162461bcd60e51b815260206004820152602960248201527f455243313135353a206163636f756e747320616e6420696473206c656e677468604482015268040dad2e6dac2e8c6d60bb1b60648201526084016103c7565b600083516001600160401b0381111561066d5761066d6118f9565b604051908082528060200260200182016040528015610696578160200160208202803683370190505b50905060005b845181101561070e576106e18582815181106106ba576106ba611f2b565b60200260200101518583815181106106d4576106d4611f2b565b6020026020010151610360565b8282815181106106f3576106f3611f2b565b602090810291909101015261070781611f57565b905061069c565b509392505050565b61071e610fe6565b600961072a8282611fbb565b5061073481611040565b50565b61073f610fe6565b610749600061104c565b565b6005805461045690611e0c565b61076333838361109e565b5050565b6000610771610fe6565b600083116107c15760405162461bcd60e51b815260206004820152601d60248201527f416d6f756e74206d7573742062652067726561746572207468616e203000000060448201526064016103c7565b6001600160a01b0382166108135760405162461bcd60e51b8152602060048201526019602482015278496e76616c696420726563697069656e74206164647265737360381b60448201526064016103c7565b6000848152600760205260408120548103610866575060088054600081815260066020908152604080832089905588835260079091528120829055825491929061085c83611f57565b9190505550610877565b506000848152600760205260409020545b6108928382866040518060200160405280600081525061117e565b826001600160a01b031685827f536146b01b4f9b19613fba6f41cbe7d271a7cb25df64a46d9ef95863a02243e0876040516108cf91815260200190565b60405180910390a4949350505050565b6001600160a01b0385163314806108fb57506108fb85336102f9565b6109175760405162461bcd60e51b81526004016103c790611edd565b610550858585858561124f565b61092c610fe6565b6001600160a01b0381166109915760405162461bcd60e51b815260206004820152602660248201527f4f776e61626c653a206e6577206f776e657220697320746865207a65726f206160448201526564647265737360d01b60648201526084016103c7565b6107348161104c565b6109a2610fe6565b81518351146109ec5760405162461bcd60e51b8152602060048201526016602482015275082e4e4c2f2e640d8cadccee8d040dad2e6dac2e8c6d60531b60448201526064016103c7565b6001600160a01b038116610a3e5760405162461bcd60e51b8152602060048201526019602482015278496e76616c696420726563697069656e74206164647265737360381b60448201526064016103c7565b600083516001600160401b03811115610a5957610a596118f9565b604051908082528060200260200182016040528015610a82578160200160208202803683370190505b50905060005b8451811015610c15576000848281518110610aa557610aa5611f2b565b602002602001015111610afa5760405162461bcd60e51b815260206004820152601d60248201527f416d6f756e74206d7573742062652067726561746572207468616e203000000060448201526064016103c7565b600060076000878481518110610b1257610b12611f2b565b6020026020010151815260200190815260200160002054600003610bb4576008549050858281518110610b4757610b47611f2b565b602002602001015160066000838152602001908152602001600020819055508060076000888581518110610b7d57610b7d611f2b565b602002602001015181526020019081526020016000208190555060086000815480929190610baa90611f57565b9190505550610be4565b60076000878481518110610bca57610bca611f2b565b602002602001015181526020019081526020016000205490505b80838381518110610bf757610bf7611f2b565b60209081029190910101525080610c0d81611f57565b915050610a88565b50610c3182828560405180602001604052806000815250611379565b50505050565b60606000610c44836114c4565b60010190506000816001600160401b03811115610c6357610c636118f9565b6040519080825280601f01601f191660200182016040528015610c8d576020820181803683370190505b5090508181016020015b600019016f181899199a1a9b1b9c1cb0b131b232b360811b600a86061a8153600a8504945084610c9757509392505050565b8151835114610cea5760405162461bcd60e51b81526004016103c79061207a565b6001600160a01b038416610d105760405162461bcd60e51b81526004016103c7906120c2565b3360005b8451811015610df7576000858281518110610d3157610d31611f2b565b602002602001015190506000858381518110610d4f57610d4f611f2b565b602090810291909101810151600084815280835260408082206001600160a01b038e168352909352919091205490915081811015610d9f5760405162461bcd60e51b81526004016103c790612107565b6000838152602081815260408083206001600160a01b038e8116855292528083208585039055908b16825281208054849290610ddc908490612151565b9250508190555050505080610df090611f57565b9050610d14565b50846001600160a01b0316866001600160a01b0316826001600160a01b03167f4a39dc06d4c0dbc64b70af90fd698a233a518aa5d07e595d983b8c0526c8f7fb8787604051610e47929190612164565b60405180910390a4610e5d81878787878761159c565b505050505050565b6001600160a01b038316610ec75760405162461bcd60e51b815260206004820152602360248201527f455243313135353a206275726e2066726f6d20746865207a65726f206164647260448201526265737360e81b60648201526084016103c7565b336000610ed3846116f7565b90506000610ee0846116f7565b60408051602080820183526000918290528882528181528282206001600160a01b038b1683529052205490915084811015610f695760405162461bcd60e51b8152602060048201526024808201527f455243313135353a206275726e20616d6f756e7420657863656564732062616c604482015263616e636560e01b60648201526084016103c7565b6000868152602081815260408083206001600160a01b038b81168086529184528285208a8703905582518b81529384018a90529092908816917fc3d58168c5ae7397731d063d5bbf3d657854427343f4c083240f7aacaa2d0f62910160405180910390a46040805160208101909152600090525b50505050505050565b6003546001600160a01b031633146107495760405162461bcd60e51b815260206004820181905260248201527f4f776e61626c653a2063616c6c6572206973206e6f7420746865206f776e657260448201526064016103c7565b60026107638282611fbb565b600380546001600160a01b038381166001600160a01b0319831681179093556040519116919082907f8be0079c531659141344cd1fd0a4f28419497f9722a3daafe3b4186f6b6457e090600090a35050565b816001600160a01b0316836001600160a01b0316036111115760405162461bcd60e51b815260206004820152602960248201527f455243313135353a2073657474696e6720617070726f76616c20737461747573604482015268103337b91039b2b63360b91b60648201526084016103c7565b6001600160a01b03838116600081815260016020908152604080832094871680845294825291829020805460ff191686151590811790915591519182527f17307eab39ab6107e8899845ad3d59bd9653f200f220920489ca2b5937696c31910160405180910390a3505050565b6001600160a01b0384166111a45760405162461bcd60e51b81526004016103c790612192565b3360006111b0856116f7565b905060006111bd856116f7565b90506000868152602081815260408083206001600160a01b038b168452909152812080548792906111ef908490612151565b909155505060408051878152602081018790526001600160a01b03808a1692600092918716917fc3d58168c5ae7397731d063d5bbf3d657854427343f4c083240f7aacaa2d0f62910160405180910390a4610fdd83600089898989611742565b6001600160a01b0384166112755760405162461bcd60e51b81526004016103c7906120c2565b336000611281856116f7565b9050600061128e856116f7565b90506000868152602081815260408083206001600160a01b038c168452909152902054858110156112d15760405162461bcd60e51b81526004016103c790612107565b6000878152602081815260408083206001600160a01b038d8116855292528083208985039055908a1682528120805488929061130e908490612151565b909155505060408051888152602081018890526001600160a01b03808b16928c821692918816917fc3d58168c5ae7397731d063d5bbf3d657854427343f4c083240f7aacaa2d0f62910160405180910390a461136e848a8a8a8a8a611742565b505050505050505050565b6001600160a01b03841661139f5760405162461bcd60e51b81526004016103c790612192565b81518351146113c05760405162461bcd60e51b81526004016103c79061207a565b3360005b845181101561145c578381815181106113df576113df611f2b565b60200260200101516000808784815181106113fc576113fc611f2b565b602002602001015181526020019081526020016000206000886001600160a01b03166001600160a01b0316815260200190815260200160002060008282546114449190612151565b9091555081905061145481611f57565b9150506113c4565b50846001600160a01b031660006001600160a01b0316826001600160a01b03167f4a39dc06d4c0dbc64b70af90fd698a233a518aa5d07e595d983b8c0526c8f7fb87876040516114ad929190612164565b60405180910390a46105508160008787878761159c565b60008072184f03e93ff9f4daa797ed6e38ed64bf6a1f0160401b83106115035772184f03e93ff9f4daa797ed6e38ed64bf6a1f0160401b830492506040015b6d04ee2d6d415b85acef8100000000831061152f576d04ee2d6d415b85acef8100000000830492506020015b662386f26fc10000831061154d57662386f26fc10000830492506010015b6305f5e1008310611565576305f5e100830492506008015b612710831061157957612710830492506004015b6064831061158b576064830492506002015b600a83106103f35760010192915050565b6001600160a01b0384163b15610e5d5760405163bc197c8160e01b81526001600160a01b0385169063bc197c81906115e090899089908890889088906004016121d3565b6020604051808303816000875af192505050801561161b575060408051601f3d908101601f1916820190925261161891810190612231565b60015b6116c75761162761224e565b806308c379a003611660575061163b61226a565b806116465750611662565b8060405162461bcd60e51b81526004016103c791906118cd565b505b60405162461bcd60e51b815260206004820152603460248201527f455243313135353a207472616e7366657220746f206e6f6e2d455243313135356044820152732932b1b2b4bb32b91034b6b83632b6b2b73a32b960611b60648201526084016103c7565b6001600160e01b0319811663bc197c8160e01b14610fdd5760405162461bcd60e51b81526004016103c7906122f3565b6040805160018082528183019092526060916000919060208083019080368337019050509050828160008151811061173157611731611f2b565b602090810291909101015292915050565b6001600160a01b0384163b15610e5d5760405163f23a6e6160e01b81526001600160a01b0385169063f23a6e6190611786908990899088908890889060040161233b565b6020604051808303816000875af19250505080156117c1575060408051601f3d908101601f191682019092526117be91810190612231565b60015b6117cd5761162761224e565b6001600160e01b0319811663f23a6e6160e01b14610fdd5760405162461bcd60e51b81526004016103c7906122f3565b80356001600160a01b038116811461181457600080fd5b919050565b6000806040838503121561182c57600080fd5b611835836117fd565b946020939093013593505050565b6001600160e01b03198116811461073457600080fd5b60006020828403121561186b57600080fd5b813561187681611843565b9392505050565b60005b83811015611898578181015183820152602001611880565b50506000910152565b600081518084526118b981602086016020860161187d565b601f01601f19169290920160200192915050565b60208152600061187660208301846118a1565b6000602082840312156118f257600080fd5b5035919050565b634e487b7160e01b600052604160045260246000fd5b601f8201601f191681016001600160401b0381118282101715611934576119346118f9565b6040525050565b60006001600160401b03821115611954576119546118f9565b5060051b60200190565b600082601f83011261196f57600080fd5b8135602061197c8261193b565b604051611989828261190f565b83815260059390931b85018201928281019150868411156119a957600080fd5b8286015b848110156119c457803583529183019183016119ad565b509695505050505050565b60006001600160401b038311156119e8576119e86118f9565b6040516119ff601f8501601f19166020018261190f565b809150838152848484011115611a1457600080fd5b83836020830137600060208583010152509392505050565b600082601f830112611a3d57600080fd5b611876838335602085016119cf565b600080600080600060a08688031215611a6457600080fd5b611a6d866117fd565b9450611a7b602087016117fd565b935060408601356001600160401b0380821115611a9757600080fd5b611aa389838a0161195e565b94506060880135915080821115611ab957600080fd5b611ac589838a0161195e565b93506080880135915080821115611adb57600080fd5b50611ae888828901611a2c565b9150509295509295909350565b60008060408385031215611b0857600080fd5b50508035926020909101359150565b60008060408385031215611b2a57600080fd5b82356001600160401b0380821115611b4157600080fd5b818501915085601f830112611b5557600080fd5b81356020611b628261193b565b604051611b6f828261190f565b83815260059390931b8501820192828101915089841115611b8f57600080fd5b948201945b83861015611bb457611ba5866117fd565b82529482019490820190611b94565b96505086013592505080821115611bca57600080fd5b50611bd78582860161195e565b9150509250929050565b600081518084526020808501945080840160005b83811015611c1157815187529582019590820190600101611bf5565b509495945050505050565b6020815260006118766020830184611be1565b600060208284031215611c4157600080fd5b81356001600160401b03811115611c5757600080fd5b8201601f81018413611c6857600080fd5b611c77848235602084016119cf565b949350505050565b60008060408385031215611c9257600080fd5b611c9b836117fd565b915060208301358015158114611cb057600080fd5b809150509250929050565b600080600060608486031215611cd057600080fd5b8335925060208401359150611ce7604085016117fd565b90509250925092565b60008060408385031215611d0357600080fd5b611d0c836117fd565b9150611d1a602084016117fd565b90509250929050565b600080600080600060a08688031215611d3b57600080fd5b611d44866117fd565b9450611d52602087016117fd565b9350604086013592506060860135915060808601356001600160401b03811115611d7b57600080fd5b611ae888828901611a2c565b600060208284031215611d9957600080fd5b611876826117fd565b600080600060608486031215611db757600080fd5b83356001600160401b0380821115611dce57600080fd5b611dda8783880161195e565b94506020860135915080821115611df057600080fd5b50611dfd8682870161195e565b925050611ce7604085016117fd565b600181811c90821680611e2057607f821691505b602082108103611e4057634e487b7160e01b600052602260045260246000fd5b50919050565b6000808454611e5481611e0c565b60018281168015611e6c5760018114611e8157611eb0565b60ff1984168752821515830287019450611eb0565b8860005260208060002060005b85811015611ea75781548a820152908401908201611e8e565b50505082870194505b505050508351611ec481836020880161187d565b64173539b7b760d91b9101908152600501949350505050565b6020808252602e908201527f455243313135353a2063616c6c6572206973206e6f7420746f6b656e206f776e60408201526d195c881bdc88185c1c1c9bdd995960921b606082015260800190565b634e487b7160e01b600052603260045260246000fd5b634e487b7160e01b600052601160045260246000fd5b600060018201611f6957611f69611f41565b5060010190565b601f821115611fb657600081815260208120601f850160051c81016020861015611f975750805b601f850160051c820191505b81811015610e5d57828155600101611fa3565b505050565b81516001600160401b03811115611fd457611fd46118f9565b611fe881611fe28454611e0c565b84611f70565b602080601f83116001811461201d57600084156120055750858301515b600019600386901b1c1916600185901b178555610e5d565b600085815260208120601f198616915b8281101561204c5788860151825594840194600190910190840161202d565b508582101561206a5787850151600019600388901b60f8161c191681555b5050505050600190811b01905550565b60208082526028908201527f455243313135353a2069647320616e6420616d6f756e7473206c656e677468206040820152670dad2e6dac2e8c6d60c31b606082015260800190565b60208082526025908201527f455243313135353a207472616e7366657220746f20746865207a65726f206164604082015264647265737360d81b606082015260800190565b6020808252602a908201527f455243313135353a20696e73756666696369656e742062616c616e636520666f60408201526939103a3930b739b332b960b11b606082015260800190565b808201808211156103f3576103f3611f41565b6040815260006121776040830185611be1565b82810360208401526121898185611be1565b95945050505050565b60208082526021908201527f455243313135353a206d696e7420746f20746865207a65726f206164647265736040820152607360f81b606082015260800190565b6001600160a01b0386811682528516602082015260a0604082018190526000906121ff90830186611be1565b82810360608401526122118186611be1565b9050828103608084015261222581856118a1565b98975050505050505050565b60006020828403121561224357600080fd5b815161187681611843565b600060033d11156122675760046000803e5060005160e01c5b90565b600060443d10156122785790565b6040516003193d81016004833e81513d6001600160401b0381602484011181841117156122a757505050505090565b82850191508151818111156122bf5750505050505090565b843d87010160208285010111156122d95750505050505090565b6122e86020828601018761190f565b509095945050505050565b60208082526028908201527f455243313135353a204552433131353552656365697665722072656a656374656040820152676420746f6b656e7360c01b606082015260800190565b6001600160a01b03868116825285166020820152604081018490526060810183905260a060808201819052600090612375908301846118a1565b97965050505050505056fea264697066735822122099791b9cc0b2a36c5042d40dccebc7c09dcc2b51281027aea11e4389bb462deb64736f6c63430008150033",
  "immutableReferences": {},
  "source": "// SPDX-License-Identifier: MIT\r\npragma solidity ^0.8.21;\r\n\r\nimport \"@openzeppelin/contracts/token/ERC1155/ERC1155.sol\";\r\nimport \"@openzeppelin/contracts/access/Ownable.sol\";\r\nimport \"@openzeppelin/contracts/utils/Strings.sol\";\r\n\r\n/**\r\n * @title CarbonCreditToken\r\n * @dev ERC1155 token contract for carbon credits\r\n * Each token ID represents a different forest's carbon credits\r\n */\r\ncontract CarbonCreditToken is ERC1155, Ownable {\r\n    using Strings for uint256;\r\n\r\n    // Token name\r\n    string public name = \"Carbon Credit Token\";\r\n    \r\n    // Token symbol\r\n    string public symbol = \"CCT\";\r\n\r\n    // Mapping from token ID to forest ID\r\n    mapping(uint256 => uint256) public tokenIdToForestId;\r\n    \r\n    // Mapping from forest ID to token ID\r\n    mapping(uint256 => uint256) public forestIdToTokenId;\r\n    \r\n    // Counter for token IDs\r\n    uint256 private _currentTokenId = 1;\r\n    \r\n    // Base URI for metadata\r\n    string private _baseTokenURI;\r\n\r\n    // Events\r\n    event CreditsMinted(uint256 indexed tokenId, uint256 indexed forestId, address indexed recipient, uint256 amount);\r\n    event CreditsRetired(uint256 indexed tokenId, address indexed account, uint256 amount);\r\n\r\n    constructor(string memory baseURI) ERC1155(baseURI) {\r\n        _baseTokenURI = baseURI;\r\n    }\r\n\r\n    /**\r\n     * @dev Mint carbon credits for a specific forest\r\n     * @param forestId The database ID of the forest\r\n     * @param amount The amount of carbon credits to mint\r\n     * @param recipient The address to receive the minted tokens\r\n     */\r\n    function mintCredits(\r\n        uint256 forestId,\r\n        uint256 amount,\r\n        address recipient\r\n    ) external onlyOwner returns (uint256) {\r\n        require(amount > 0, \"Amount must be greater than 0\");\r\n        require(recipient != address(0), \"Invalid recipient address\");\r\n\r\n        uint256 tokenId;\r\n\r\n        // Check if this forest already has a token ID\r\n        if (forestIdToTokenId[forestId] == 0) {\r\n            // Create new token ID for this forest\r\n            tokenId = _currentTokenId;\r\n            tokenIdToForestId[tokenId] = forestId;\r\n            forestIdToTokenId[forestId] = tokenId;\r\n            _currentTokenId++;\r\n        } else {\r\n            // Use existing token ID\r\n            tokenId = forestIdToTokenId[forestId];\r\n        }\r\n\r\n        // Mint tokens to recipient\r\n        _mint(recipient, tokenId, amount, \"\");\r\n\r\n        emit CreditsMinted(tokenId, forestId, recipient, amount);\r\n\r\n        return tokenId;\r\n    }\r\n\r\n    /**\r\n     * @dev Batch mint carbon credits for multiple forests\r\n     * @param forestIds Array of forest IDs\r\n     * @param amounts Array of amounts to mint\r\n     * @param recipient The address to receive the minted tokens\r\n     */\r\n    function mintBatchCredits(\r\n        uint256[] memory forestIds,\r\n        uint256[] memory amounts,\r\n        address recipient\r\n    ) external onlyOwner {\r\n        require(forestIds.length == amounts.length, \"Arrays length mismatch\");\r\n        require(recipient != address(0), \"Invalid recipient address\");\r\n\r\n        uint256[] memory tokenIds = new uint256[](forestIds.length);\r\n\r\n        for (uint256 i = 0; i < forestIds.length; i++) {\r\n            require(amounts[i] > 0, \"Amount must be greater than 0\");\r\n\r\n            uint256 tokenId;\r\n            if (forestIdToTokenId[forestIds[i]] == 0) {\r\n                tokenId = _currentTokenId;\r\n                tokenIdToForestId[tokenId] = forestIds[i];\r\n                forestIdToTokenId[forestIds[i]] = tokenId;\r\n                _currentTokenId++;\r\n            } else {\r\n                tokenId = forestIdToTokenId[forestIds[i]];\r\n            }\r\n\r\n            tokenIds[i] = tokenId;\r\n        }\r\n\r\n        _mintBatch(recipient, tokenIds, amounts, \"\");\r\n    }\r\n\r\n    /**\r\n     * @dev Retire (burn) carbon credits\r\n     * @param tokenId The token ID to retire\r\n     * @param amount The amount of credits to retire\r\n     */\r\n    function retireCredits(uint256 tokenId, uint256 amount) external {\r\n        require(balanceOf(msg.sender, tokenId) >= amount, \"Insufficient balance\");\r\n        \r\n        _burn(msg.sender, tokenId, amount);\r\n        \r\n        emit CreditsRetired(tokenId, msg.sender, amount);\r\n    }\r\n\r\n    /**\r\n     * @dev Get the forest ID for a token ID\r\n     * @param tokenId The token ID to query\r\n     * @return The forest ID\r\n     */\r\n    function getForestId(uint256 tokenId) external view returns (uint256) {\r\n        return tokenIdToForestId[tokenId];\r\n    }\r\n\r\n    /**\r\n     * @dev Get the token ID for a forest ID\r\n     * @param forestId The forest ID to query\r\n     * @return The token ID (0 if not minted yet)\r\n     */\r\n    function getTokenId(uint256 forestId) external view returns (uint256) {\r\n        return forestIdToTokenId[forestId];\r\n    }\r\n\r\n    /**\r\n     * @dev Set the base URI for token metadata\r\n     * @param baseURI The new base URI\r\n     */\r\n    function setBaseURI(string memory baseURI) external onlyOwner {\r\n        _baseTokenURI = baseURI;\r\n        _setURI(baseURI);\r\n    }\r\n\r\n    /**\r\n     * @dev Get the URI for a specific token ID\r\n     * @param tokenId The token ID\r\n     * @return The token URI\r\n     */\r\n    function uri(uint256 tokenId) public view override returns (string memory) {\r\n        return string(abi.encodePacked(_baseTokenURI, tokenId.toString(), \".json\"));\r\n    }\r\n\r\n    /**\r\n     * @dev Get the current token ID counter\r\n     * @return The next token ID that will be minted\r\n     */\r\n    function getCurrentTokenId() external view returns (uint256) {\r\n        return _currentTokenId;\r\n    }\r\n}\r\n",
  "sourcePath": "D:\\Swinburne\\Code Only\\carbon-credit-app\\CreditToken\\contracts\\CarbonCreditToken.sol",
  "compiler": {
    "name": "solc",
    "version": "0.8.21+commit.d9974bed.Emscripten.clang"
  },
  "schemaVersion": "3.4.16",
  "updatedAt": "2025-12-02T09:13:25.542Z",
  "networkType": "ethereum",
  "devdoc": {
    "details": "ERC1155 token contract for carbon credits Each token ID represents a different forest's carbon credits",
    "events": {
      "ApprovalForAll(address,address,bool)": {
        "details": "Emitted when `account` grants or revokes permission to `operator` to transfer their tokens, according to `approved`."
      },
      "TransferBatch(address,address,address,uint256[],uint256[])": {
        "details": "Equivalent to multiple {TransferSingle} events, where `operator`, `from` and `to` are the same for all transfers."
      },
      "TransferSingle(address,address,address,uint256,uint256)": {
        "details": "Emitted when `value` tokens of token type `id` are transferred from `from` to `to` by `operator`."
      },
      "URI(string,uint256)": {
        "details": "Emitted when the URI for token type `id` changes to `value`, if it is a non-programmatic URI. If an {URI} event was emitted for `id`, the standard https://eips.ethereum.org/EIPS/eip-1155#metadata-extensions[guarantees] that `value` will equal the value returned by {IERC1155MetadataURI-uri}."
      }
    },
    "kind": "dev",
    "methods": {
      "balanceOf(address,uint256)": {
        "details": "See {IERC1155-balanceOf}. Requirements: - `account` cannot be the zero address."
      },
      "balanceOfBatch(address[],uint256[])": {
        "details": "See {IERC1155-balanceOfBatch}. Requirements: - `accounts` and `ids` must have the same length."
      },
      "getCurrentTokenId()": {
        "details": "Get the current token ID counter",
        "returns": {
          "_0": "The next token ID that will be minted"
        }
      },
      "getForestId(uint256)": {
        "details": "Get the forest ID for a token ID",
        "params": {
          "tokenId": "The token ID to query"
        },
        "returns": {
          "_0": "The forest ID"
        }
      },
      "getTokenId(uint256)": {
        "details": "Get the token ID for a forest ID",
        "params": {
          "forestId": "The forest ID to query"
        },
        "returns": {
          "_0": "The token ID (0 if not minted yet)"
        }
      },
      "isApprovedForAll(address,address)": {
        "details": "See {IERC1155-isApprovedForAll}."
      },
      "mintBatchCredits(uint256[],uint256[],address)": {
        "details": "Batch mint carbon credits for multiple forests",
        "params": {
          "amounts": "Array of amounts to mint",
          "forestIds": "Array of forest IDs",
          "recipient": "The address to receive the minted tokens"
        }
      },
      "mintCredits(uint256,uint256,address)": {
        "details": "Mint carbon credits for a specific forest",
        "params": {
          "amount": "The amount of carbon credits to mint",
          "forestId": "The database ID of the forest",
          "recipient": "The address to receive the minted tokens"
        }
      },
      "owner()": {
        "details": "Returns the address of the current owner."
      },
      "renounceOwnership()": {
        "details": "Leaves the contract without owner. It will not be possible to call `onlyOwner` functions. Can only be called by the current owner. NOTE: Renouncing ownership will leave the contract without an owner, thereby disabling any functionality that is only available to the owner."
      },
      "retireCredits(uint256,uint256)": {
        "details": "Retire (burn) carbon credits",
        "params": {
          "amount": "The amount of credits to retire",
          "tokenId": "The token ID to retire"
        }
      },
      "safeBatchTransferFrom(address,address,uint256[],uint256[],bytes)": {
        "details": "See {IERC1155-safeBatchTransferFrom}."
      },
      "safeTransferFrom(address,address,uint256,uint256,bytes)": {
        "details": "See {IERC1155-safeTransferFrom}."
      },
      "setApprovalForAll(address,bool)": {
        "details": "See {IERC1155-setApprovalForAll}."
      },
      "setBaseURI(string)": {
        "details": "Set the base URI for token metadata",
        "params": {
          "baseURI": "The new base URI"
        }
      },
      "supportsInterface(bytes4)": {
        "details": "See {IERC165-supportsInterface}."
      },
      "transferOwnership(address)": {
        "details": "Transfers ownership of the contract to a new account (`newOwner`). Can only be called by the current owner."
      },
      "uri(uint256)": {
        "details": "Get the URI for a specific token ID",
        "params": {
          "tokenId": "The token ID"
        },
        "returns": {
          "_0": "The token URI"
        }
      }
    },
    "title": "CarbonCreditToken",
    "version": 1
  },
  "userdoc": {
    "kind": "user",
    "methods": {},
    "version": 1
  }
}